S0190000555345525F4150504C49434154494F4E312E7372656308
S113000029C0000042C0000040C000003EC0000003
S11300103CC000003AC0000038C0000036C00000F8
S113002034C0000032C0000030C000002EC0000008
S11300302CC000002AC0000028C0000026C0000018
S113004024C0000022C0000020C000001EC0000028
S11300501CC0000011241FBECFE5D8E0DEBFCDBF19
S113006010E0A0E6B0E0ECE0FDE002C005900D92E7
S1130070A83DB107D9F720E0A8EDB0E001C01D927A
S1130080A43EB207E1F7F5D23FC6BACF892F8095D7
S1130090881F8827881F0895EF92FF920F931F935C
S11300A0CF93DF93CDB7DEB72A970FB6F894DEBFB0
S11300B00FBECDBF1CD362E080E01CD388E790E084
S11300C09F938F938DE790E09F938F930F2EF0E88B
S11300D0EF2EF0E0FF2EF02DFF92EF9283E890E0F8
S11300E09F938F938E010F5F1F4F1F930F9349D3DD
S11300F0C80112D362E081E0FDD282E990E09F93CF
S11301008F93FF92EF9285E990E09F938F9388E914
S113011090E09F938F931F930F9333D3C801FCD226
S11301200FB6F894DEBF0FBECDBF2A960FB6F89473
S1130130DEBF0FBECDBFDF91CF911F910F91FF9016
S1130140EF900895FB01EE0FFF1FE25AFF4F20814D
S1130150318128173907A4F49A0123703327232BFC
S113016099F46230710591F44D9791F4CA0164E6F3
S113017070E0E0D29C0181E0232B69F480E00895D3
S11301806D3071053CF4089580E0089580E0089591
S113019080E0089580E008950F931F93CF93DF9339
S11301A08091E2009091E30001968C3391052CF448
S11301B09093E3008093E20058C01092E300109201
S11301C0E2008091E0009091E10001968C3391056A
S11301D02CF49093E1008093E00047C01092E1007A
S11301E01092E0008091D8009091D9000196883156
S11301F091052CF49093D9008093D80036C01092C6
S1130200D9001092D8008091DA009091DB00019619
S11302109093DB008093DA00C091DC00D091DD0084
S11302200091DE001091DF00AE01B8018BDF811177
S11302301CC081E090E09093DB008093DA00B80169
S11302406F5F7F4F7093DF006093DE00AE017ADF53
S113025081110BC081E090E09093DF008093DE0079
S11302602196D093DD00C093DC00DF91CF911F91E4
S11302700F910895AF9AAE9AAD9AAC9AAB9AAA9A96
S1130280A99AA89A089595B341E050E09A01082EDE
S113029002C0220F331F0A94E2F72095292325BBBD
S11302A023B330E0082E02C0359527950A94E2F76F
S11302B020FF93B323B330E0A90102C055954795BD
S11302C08A95E2F740FD0FC083B390E09C0102C021
S11302D0359527956A95E2F781E090E020FF05C007
S11302E080E090E002C080E090E081700895EF9299
S11302F0FF920F931F93CF93DF9364E070E082E04B
S113030090E0C1DF81112FC0AA9A04E010E0EE242E
S1130310E394F12C26C0B801CE01B5DF882371F037
S113032087E090E0801B910B9C01220F331F280F64
S1130330391F2C1B3D0B2C5F3F4F1AC025B3C7013F
S11303400C2E02C0880F991F0A94E2F7822B85BBFA
S11303502196C430D105F9F60F5F1F4F08301105FF
S113036029F0E701D8CF20E030E002C02FEF3FEFC3
S1130370822F932FDF91CF911F910F91FF90EF90D8
S11303800895B89AB998A498A598A698A798A09AF9
S1130390A19AA29AA39A089523E023BF33E807C041
S11303A032BF28B7216028BF08B600FEFDCF0197F1
S11303B0B8F713BE0895CF93DF931F92CDB7DEB77E
S11303C0A12CB12C00E010E06894EE24E1F8F12CAB
S11303D0812C912C66246394712C6C0E7D1E689480
S11303E0222421F8312C412C512CAFC06E2D882DA4
S11303F081D17DDF6C014ADE882309F472C0DF926B
S1130400CF9287EA90E09F938F937F926F92B9D1B6
S1130410C30182D180E991E0BFDF0F900F900F906C
S11304200F900F900F908BE0E816F1041CF08114EC
S1130430910481F09CE0E916F10494F4C70101965B
S11304408430910519F08730910549F422E0E20ED9
S1130450F11C06C0710188248394912C01C07C0195
S11304600F5F1F4F00FD06C00630110599F0AC0C5C
S1130470BD1C37C00530110551F488EE93E0C89EC9
S11304805001C99EB00CD89EB00C11245EC0063039
S1130490110559F424E62C9DC0012D9D900D1124C5
S11304A0A80EB91E06E010E050C00730110571F423
S11304B0C601880F991FCC0CDD1CCC0CDD1CCC0CA8
S11304C0DD1C8C0D9D1DA80EB91E3FC05601AA0C43
S11304D0BB1CCC0CDD1CCC0CDD1CCC0CDD1CAC0C16
S11304E0BD1C0230110529F4B092DF00A092DE0099
S11304F02CC00430110529F4B092DB00A092DA007C
S113050024C00830110529F4B092DD00A092DC006B
S11305101CC00A30110529F4B092D900A092D80069
S113052014C00C30110529F4B092E100A092E0004F
S11305300CC00E30110549F4B092E300A092E20021
S113054004C052018201710142018AE0E816F104FB
S11305500CF44CCF91E08916910409F047CF4091F7
S1130560DC005091DD006091DE007091DF0080912D
S1130570DA009091DB00E6DD81111FC0B8D0EAEA11
S1130580F0E0D3018DE001900D928A95E1F7C3016B
S1130590C3D080ED97E000DF7FDD4091DC00509117
S11305A0DD006091DE007091DF008091DA009091AF
S11305B0DB00C8DD882309F4C4CF0F2EF7EBCF2E60
S11305C0F0E0DF2EF02D8E010F5F1F4F0F2EF6ECA3
S11305D0EF2EF0E0FF2EF02D88EE93E0DDDEDCDD83
S11305E062E080E087D08091DD008F938091DC0011
S11305F08F938091DB008F938091DA008F938091A9
S1130600DF008F938091DE008F93DF92CF921F9350
S11306100F93B7D0C80180D062E081E06BD08091A5
S1130620E3008F938091E2008F938091E1008F9398
S11306308091E0008F938091D9008F938091D800AE
S11306408F93FF92EF921F930F939BD0C80164D0B6
S11306500FB6F894DEBF0FBECDBFBECF2AD047D0B1
S113066085ED90E059D088EB9BE096DE40D014DD18
S1130670A2DE87DEFFDDF2DF662311F0C29A01C03D
S1130680C298C39882BB8FEF81BBC49A000000005C
S11306900000C4980895C298C39A11BA90B3C49A3A
S11306A000000000000011BA90B3C49899239CF391
S11306B0E3CFBA9ABB9ABC9A80E190E06DDE60E029
S11306C080E3DADF85E090E067DE60E080E3D4DF9A
S11306D081E090E061DE60E08CE3DDDF60E08CE0EF
S11306E0DADF60E086E0D7DF60E081E0D4CF60E06D
S11306F081E0D1CFCF93C62F98E2899FC00D1124FA
S113070060E082E0C8DFCC2329F060E084E1C3DF4D
S1130710C150D9F7CF910895CF93DF93EC0189911C
S1130720882329F061E0B7DF89918111FBCFDF9144
S1130730CF91089597FB072E16F4009406D077FD09
S113074008D00BD007FC05D03EF4909581959F4FBF
S11307500895709561957F4F0895AA1BBB1B51E1C5
S113076007C0AA1FBB1FA617B70710F0A61BB70B1D
S1130770881F991F5A95A9F780959095BC01CD01C2
S11307800895AEE0B0E0E6ECF3E095C20D891E8971
S113079086E08C831A8309838FEF9FE79E838D8382
S11307A0CE014996AC016F89788DCE01019608D0AF
S11307B0EF81F885E00FF11F10822E96E4E097C2D6
S11307C0ACE0B0E0E5EEF3E068C27C016B018A01C5
S11307D0FC0117821682838181FFB9C18824839426
S11307E0912C8C0E9D1EF7019381F60193FD85914A
S11307F093FF81916F01882309F4A5C1853239F4EF
S113080093FD859193FF81916F01853221F4B701A6
S113081090E0B9D1E8CF512C312C20E02032A8F45B
S11308208B3261F028F4803251F0833271F40BC0C2
S11308308D3239F0803349F4216028C0226024606D
S113084025C0286023C0206121C027FD27C0382F80
S113085030533A3078F426FF06C0FAE05F9E300D3C
S11308601124532E13C08AE0389E300D1124332EE8
S113087020620CC08E3221F426FD65C1206406C0BE
S11308808C3611F4206802C0883641F4F60193FDD9
S1130890859193FF81916F018111C0CF982F955459
S11308A0933018F09052933028F40C5F1F4FFFE3FD
S11308B0F9830DC0833631F0833771F0833509F045
S11308C05AC022C0F801808189830E5F1F4F4424DF
S11308D04394512C540114C03801F2E06F0E711C82
S11308E0F801A080B18026FF03C0652D70E002C02E
S11308F06FEF7FEFC5012C873BD12C0183012C8541
S11309006FE7262E222217C03801F2E06F0E711C09
S1130910F801A080B18026FF03C0652D70E002C0FD
S11309206FEF7FEFC5012C8718D12C012C8550E87F
S1130930252E222A830123FC1AC005C0B70180E2B8
S113094090E021D13A94832D90E048165906B0F3F3
S11309500EC0F50127FC859127FE81915F01B70147
S113096090E011D131103A94F1E04F1A510841143A
S1130970510479F7E5C0843611F0893639F5F80168
S113098027FF07C060817181828193810C5F1F4FB3
S113099008C060817181882777FD8095982F0E5F4C
S11309A01F4F4FE6B42EB22297FF09C09095809551
S11309B0709561957F4F8F4F9F4FF0E8BF2A2AE0D3
S11309C030E0A4010CD1A82EA81842C0853731F418
S11309D03FEEB32EB2222AE030E024C099EFB92EC4
S11309E0B2228F36B9F020F4883509F0ACC00DC0BE
S11309F0803721F0883709F0A6C002C020E1B22A6E
S1130A00B4FE0BC084E0B82A08C024FF09C0E6E0A5
S1130A10BE2A06C028E030E005C020E130E002C074
S1130A2020E132E0F801B7FE07C060817181828164
S1130A3093810C5F1F4F06C06081718180E090E05C
S1130A400E5F1F4FA401CBD0A82EA818FFE7BF222A
S1130A50B6FE0BC02B2D2E7FA51450F4B4FE0AC095
S1130A60B2FC08C02B2D2E7E05C07A2C2B2D03C082
S1130A707A2C01C0752C24FF0DC0FE01EA0DF11D76
S1130A808081803311F4297E09C022FF06C073944B
S1130A90739404C0822F867809F0739423FD13C0E5
S1130AA020FF0EC05A2C731458F4530C5718732C8F
S1130AB007C0B70180E290E02C8765D073942C8541
S1130AC07314B8F304C0731410F4371801C0312C34
S1130AD024FF11C0B70180E390E02C8754D02C850B
S1130AE022FF1CC021FF03C088E590E002C088E714
S1130AF090E0B7010CC0822F867881F021FD02C0FE
S1130B0080E201C08BE227FD8DE2B70190E03BD08B
S1130B1005C0B70180E390E036D05A94A514C8F319
S1130B20AA94F401EA0DF11DB701808190E02BD065
S1130B30A110F6CF05C0B70180E290E024D03A942A
S1130B403110F9CF50CEF7012681378102C02FEF43
S1130B503FEFC9012C96E2E1BCC0FC010590615055
S1130B6070400110D8F7809590958E0F9F1F0895BF
S1130B70FC016150704001900110D8F78095909568
S1130B808E0F9F1F08950F931F93CF93DF938C01B4
S1130B90EB018B8181FD03C00FEF1FEF1AC082FFB1
S1130BA00DC02E813F818C819D812817390764F403
S1130BB0E881F9810193F983E88306C0E885F98522
S1130BC0802F0995892B41F78E819F8101969F8300
S1130BD08E83C801DF91CF911F910F910895FA017F
S1130BE0AA27283051F1203181F1E8946F936E7F68
S1130BF06E5F7F4F8F4F9F4FAF4FB1E03ED0B4E059
S1130C003CD0670F781F891F9A1FA11D680F791F99
S1130C108A1F911DA11D6A0F711D811D911DA11DAA
S1130C2020D009F468943F912AE0269F11243019BA
S1130C30305D3193DEF6CF010895462F4770405D55
S1130C404193B3E00FD0C9F7F6CF462F4F70405D04
S1130C504A3318F0495D31FD4052419302D0A9F75F
S1130C60EACFB4E0A6959795879577956795BA9559
S1130C70C9F700976105710508959B01AC010A2E1F
S1130C8006945795479537952795BA95C9F7620FF6
S1130C90731F841F951FA01D08952F923F924F929A
S1130CA05F926F927F928F929F92AF92BF92CF92F8
S1130CB0DF92EF92FF920F931F93CF93DF93CDB701
S1130CC0DEB7CA1BDB0B0FB6F894DEBF0FBECDBF79
S1130CD009942A88398848885F846E847D848C844A
S1130CE09B84AA84B984C884DF80EE80FD800C8153
S1130CF01B81AA81B981CE0FD11D0FB6F894DEBF36
S10F0D000FBECDBFED010895F894FFCFA5
S1130D0C1F001C001F001E001F001E001F001F00E0
S1130D1C1E001F001E001F0059595959004444005D
S1130D2C4D4D00253032732F253032732F2530343E
S1130D3C7300535300484800253032733A2530323F
S1130D4C733A2530327300256900696E76616C69DB
S1130D5C64206461746500253032692F2530326952
S1130D6C2F2530326900253032693A253032693A00
S10B0D7C2530326900686900AA
S9030000FC
